:100000000C9434000C9446000C9446000C9446006A
:100010000C9446000C94A2000C9446000C944600EC
:100020000C9446000C9446000C9446000C94460038
:100030000C9446000C9446000C9446000C94460028
:100040000C9446000C9446000C94CC000C94460092
:100050000C9446000C9446000C9446000C94460008
:100060000C9446000C94460011241FBECFEFD8E03C
:10007000DEBFCDBF21E0A0E0B1E001C01D92A03005
:10008000B207E1F70E94E2000C940F010C9400000B
:10009000092E000CAA0BBB0B9C01AD0184E0220FC2
:1000A000331F441F551F8A95D1F760E074E284EF37
:1000B00090E00E94ED00215031093093C50020935B
:1000C000C40088E98093C10086E08093C200E0EC20
:1000D000F0E080818D7F808308959091C00095FF2E
:1000E000FCCF8093C60008958091C00087FFFCCFAD
:1000F0008091C600089584B18FEF84B908958AB1C4
:1001000088778AB98BB188678BB9089584E080932A
:10011000680088E780936D0078940895813019F421
:100120008FEF85B9089515B8089585B1809585B983
:100130002FEF81EE94E0215080409040E1F700C025
:10014000000008951F920F920FB60F9211242F9363
:100150003F934F935F936F937F938F939F93AF934F
:10016000BF93EF93FF9381E60E946D0089B10E94D7
:100170006D000E949500FF91EF91BF91AF919F910B
:100180008F917F916F915F914F913F912F910F9040
:100190000FBE0F901F9018951F920F920FB60F92DF
:1001A00011248F938091C600813619F48FEF85B9A1
:1001B00003C0823609F415B88F910F900FBE0F90CF
:1001C0001F9018950E947B000E947F000E9486006D
:1001D00080E895E20E944800FFCFA1E21A2EAA1BF8
:1001E000BB1BFD010DC0AA1FBB1FEE1FFF1FA217E7
:1001F000B307E407F50720F0A21BB30BE40BF50BE4
:10020000661F771F881F991F1A9469F7609570956C
:10021000809590959B01AC01BD01CF010895F894A4
:02022000FFCF0E
:00000001FF
